{"abi":[{"type":"constructor","inputs":[],"stateMutability":"nonpayable"},{"type":"function","name":"claim","inputs":[{"name":"marketId","type":"uint256","internalType":"uint256"},{"name":"predictionId","type":"uint256","internalType":"uint256"}],"outputs":[],"stateMutability":"nonpayable"},{"type":"function","name":"claimFees","inputs":[{"name":"value","type":"uint256","internalType":"uint256"}],"outputs":[],"stateMutability":"nonpayable"},{"type":"function","name":"create","inputs":[{"name":"title","type":"string","internalType":"string"},{"name":"url","type":"string","internalType":"string"},{"name":"end","type":"uint256","internalType":"uint256"},{"name":"revealPeriod","type":"uint256","internalType":"uint256"},{"name":"minValue","type":"uint256","internalType":"uint256"},{"name":"wadFeeFraction","type":"int256","internalType":"int256"},{"name":"regex","type":"string","internalType":"string"},{"name":"feeRecipient","type":"address","internalType":"address"},{"name":"resolver","type":"address","internalType":"contract IMarketResolver"},{"name":"tlsnVerifier","type":"address","internalType":"contract ITLSNVerifier"},{"name":"embeddingVerifier","type":"address","internalType":"contract IEmbeddingVerifier"}],"outputs":[{"name":"","type":"uint256","internalType":"uint256"}],"stateMutability":"nonpayable"},{"type":"function","name":"fees","inputs":[{"name":"","type":"address","internalType":"address"}],"outputs":[{"name":"","type":"uint256","internalType":"uint256"}],"stateMutability":"view"},{"type":"function","name":"id","inputs":[],"outputs":[{"name":"","type":"address","internalType":"contract Id"}],"stateMutability":"view"},{"type":"function","name":"markets","inputs":[{"name":"","type":"uint256","internalType":"uint256"}],"outputs":[{"name":"id","type":"uint256","internalType":"uint256"},{"name":"end","type":"uint256","internalType":"uint256"},{"name":"revealPeriod","type":"uint256","internalType":"uint256"},{"name":"minValue","type":"uint256","internalType":"uint256"},{"name":"wadFeeFraction","type":"int256","internalType":"int256"},{"name":"url","type":"string","internalType":"string"},{"name":"title","type":"string","internalType":"string"},{"name":"regex","type":"string","internalType":"string"},{"name":"feeRecipient","type":"address","internalType":"address"},{"name":"resolver","type":"address","internalType":"contract IMarketResolver"},{"name":"embeddingVerifier","type":"address","internalType":"contract IEmbeddingVerifier"},{"name":"tlsnVerifier","type":"address","internalType":"contract ITLSNVerifier"},{"name":"status","type":"uint8","internalType":"enum MarketStatus"}],"stateMutability":"view"},{"type":"function","name":"predict","inputs":[{"name":"marketId","type":"uint256","internalType":"uint256"},{"name":"text","type":"string","internalType":"string"},{"name":"encodedEmbedding","type":"bytes","internalType":"bytes"}],"outputs":[{"name":"","type":"uint256","internalType":"uint256"}],"stateMutability":"payable"},{"type":"function","name":"predictionTrackers","inputs":[{"name":"","type":"uint256","internalType":"uint256"}],"outputs":[{"name":"numPredictions","type":"uint256","internalType":"uint256"},{"name":"totalValue","type":"uint256","internalType":"uint256"},{"name":"totalValueClaimed","type":"uint256","internalType":"uint256"}],"stateMutability":"view"},{"type":"function","name":"predictions","inputs":[{"name":"","type":"uint256","internalType":"uint256"},{"name":"","type":"uint256","internalType":"uint256"}],"outputs":[{"name":"value","type":"uint256","internalType":"uint256"},{"name":"predictor","type":"address","internalType":"address"},{"name":"used","type":"bool","internalType":"bool"}],"stateMutability":"view"},{"type":"function","name":"refund","inputs":[{"name":"marketId","type":"uint256","internalType":"uint256"},{"name":"predictionId","type":"uint256","internalType":"uint256"}],"outputs":[],"stateMutability":"nonpayable"},{"type":"function","name":"reveal","inputs":[{"name":"marketId","type":"uint256","internalType":"uint256"},{"name":"tlsnProof","type":"bytes","internalType":"bytes"},{"name":"embeddingProof","type":"bytes","internalType":"bytes"}],"outputs":[],"stateMutability":"nonpayable"},{"type":"function","name":"reveals","inputs":[{"name":"","type":"uint256","internalType":"uint256"}],"outputs":[{"name":"encodedData","type":"bytes","internalType":"bytes"},{"name":"text","type":"string","internalType":"string"}],"stateMutability":"view"},{"type":"function","name":"trackPredictions","inputs":[{"name":"marketId","type":"uint256","internalType":"uint256"},{"name":"data","type":"bytes","internalType":"bytes"}],"outputs":[],"stateMutability":"nonpayable"},{"type":"event","name":"MarketCreated","inputs":[{"name":"marketId","type":"uint256","indexed":true,"internalType":"uint256"},{"name":"title","type":"string","indexed":false,"internalType":"string"},{"name":"url","type":"string","indexed":false,"internalType":"string"},{"name":"end","type":"uint256","indexed":false,"internalType":"uint256"},{"name":"regex","type":"string","indexed":false,"internalType":"string"},{"name":"wadFeeFraction","type":"int256","indexed":false,"internalType":"int256"},{"name":"feeRecipient","type":"address","indexed":false,"internalType":"address"},{"name":"tlsnVerifier","type":"address","indexed":false,"internalType":"address"},{"name":"embeddingVerifier","type":"address","indexed":false,"internalType":"address"},{"name":"resolver","type":"address","indexed":false,"internalType":"address"}],"anonymous":false},{"type":"event","name":"MarketRevealed","inputs":[{"name":"marketId","type":"uint256","indexed":true,"internalType":"uint256"},{"name":"text","type":"string","indexed":false,"internalType":"string"},{"name":"embedding","type":"int256[]","indexed":false,"internalType":"int256[]"},{"name":"totalValue","type":"uint256","indexed":false,"internalType":"uint256"}],"anonymous":false},{"type":"event","name":"MarketTracked","inputs":[{"name":"marketId","type":"uint256","indexed":true,"internalType":"uint256"},{"name":"wadTotalScore","type":"int256","indexed":false,"internalType":"int256"}],"anonymous":false},{"type":"event","name":"PredictionAdded","inputs":[{"name":"marketId","type":"uint256","indexed":true,"internalType":"uint256"},{"name":"predictionId","type":"uint256","indexed":true,"internalType":"uint256"},{"name":"predictor","type":"address","indexed":true,"internalType":"address"},{"name":"value","type":"uint256","indexed":false,"internalType":"uint256"},{"name":"text","type":"string","indexed":false,"internalType":"string"},{"name":"embedding","type":"int256[]","indexed":false,"internalType":"int256[]"}],"anonymous":false},{"type":"event","name":"PredictionPaid","inputs":[{"name":"marketId","type":"uint256","indexed":true,"internalType":"uint256"},{"name":"predictionId","type":"uint256","indexed":true,"internalType":"uint256"},{"name":"predictor","type":"address","indexed":true,"internalType":"address"},{"name":"value","type":"uint256","indexed":false,"internalType":"uint256"}],"anonymous":false},{"type":"error","name":"InvalidEnd","inputs":[]},{"type":"error","name":"InvalidFeeBound","inputs":[]},{"type":"error","name":"InvalidMarketStatus","inputs":[]},{"type":"error","name":"InvalidPredictionStatus","inputs":[]},{"type":"error","name":"NotEnoughValue","inputs":[]},{"type":"error","name":"OverValue","inputs":[]}],"bytecode":{"object":"0x6080806040523460815760e58181016001600160401b03811183821017606b5782916121a0833903906000f08015605f57600080546001600160a01b0319166001600160a01b039290921691909117905560405161211990816100878239f35b6040513d6000823e3d90fd5b634e487b7160e01b600052604160045260246000fd5b600080fdfe6080604052600436101561001257600080fd5b60003560e01c8063025ae4e2146100e7578063444afb02146100e25780635af36e3e146100dd57806364a6b447146100d8578063ac68a748146100d3578063af640d0f146100ce578063b07d95e8146100c9578063b1283e77146100c4578063c3490263146100bf578063d3bfc63f146100ba578063d4451442146100b5578063faaebd21146100b05763fda3c064146100ab57600080fd5b611141565b6110da565b610e22565b610bd7565b6109c5565b6108fe565b6107ab565b6105c0565b61054c565b610509565b610410565b610215565b34610144576040366003190112610144576004356024359060005260056020526040600020906000526020526060604060002060ff6001825492015460405192835260018060a01b038116602084015260a01c1615156040820152f35b600080fd5b634e487b7160e01b600052604160045260246000fd5b90601f801991011681019081106001600160401b0382111761018057604052565b610149565b6040519061019460608361015f565b565b6040519061019460408361015f565b604051906101946101a08361015f565b6001600160401b03811161018057601f01601f191660200190565b81601f82011215610144576020813591016101ea826101b5565b926101f8604051948561015f565b828452828201116101445781600092602092838601378301015290565b34610144576040366003190112610144576004356024356001600160401b038111610144576102489036906004016101d0565b61025c826000526002602052604060002090565b90600b8201906001610273835460ff9060a01c1690565b61027c8161081e565b036103ff5760206102ef9160096102a56102a0886000526004602052604060002090565b610623565b950180549095906102d0906102ca906001600160a01b03165b6001600160a01b031690565b91611c73565b6000604051809681958294633a678c3760e21b84528c6004850161124b565b03925af19081156103cb576000916103d0575b5061030957005b805460ff60a01b1916600160a11b179055610330906102be905b546001600160a01b031690565b6040516350f6e84f60e11b81526004810183905290602090829060249082905afa9081156103cb577f8f912b74768b35441f95400daf596cae98b66a10e0d553edf6951a422fe1ca32916103979160009161039c575b506040519081529081906020820190565b0390a2005b6103be915060203d6020116103c4575b6103b6818361015f565b8101906112ad565b38610386565b503d6103ac565b611279565b6103f2915060203d6020116103f8575b6103ea818361015f565b8101906111ff565b38610302565b503d6103e0565b6356d85b9f60e01b60005260046000fd5b34610144576040366003190112610144576004356024359061043c816000526002602052604060002090565b8054156103ff5761045660018201546002830154906112e0565b4211156103ff57600b01916002610472845460ff9060a01c1690565b61047b8161081e565b146103ff576104a790610498836000526005602052604060002090565b90600052602052604060002090565b60018101926104bb845460ff9060a01c1690565b6104f857805460ff60a01b1916600360a01b1790556104f6926104ee90805460ff60a01b1916600160a01b178155610323565b905490611d7d565b005b6342dd6b5760e11b60005260046000fd5b3461014457602036600319011261014457600435600052600360205260606040600020805490600260018201549101549060405192835260208301526040820152f35b34610144576020366003190112610144576004353360005260016020526040600020548082116105a4578181031161059f57600080808093818115610596575b3390f1156103cb57005b506108fc61058c565b6112bc565b63134ec4b560e11b60005260046000fd5b600091031261014457565b34610144576000366003190112610144576000546040516001600160a01b039091168152602090f35b90600182811c92168015610619575b602083101461060357565b634e487b7160e01b600052602260045260246000fd5b91607f16916105f8565b9060405191826000825492610637846105e9565b80845293600181169081156106a3575060011461065c575b506101949250038361015f565b90506000929192526020600020906000915b818310610687575050906020610194928201013861064f565b602091935080600191548385890101520191019091849261066e565b90506020925061019494915060ff191682840152151560051b8201013861064f565b600092918154916106d5836105e9565b808352926001811690811561072b57506001146106f157505050565b60009081526020812093945091925b838310610711575060209250010190565b600181602092949394548385870101520191019190610700565b915050602093945060ff929192191683830152151560051b010190565b9061019461075c92604051938480926106c5565b038361015f565b60005b8381106107765750506000910152565b8181015183820152602001610766565b9060209161079f81518092818552858086019101610763565b601f01601f1916010190565b3461014457602036600319011261014457600435600052600460205261080c604060002061081a60016107f86107e084610623565b936107f160405180948193016106c5565b038261015f565b604051938493604085526040850190610786565b908382036020850152610786565b0390f35b6004111561082857565b634e487b7160e01b600052602160045260246000fd5b9060048210156108285752565b989d9c9a946101949c9761089e6108e6986101a060a06101809f988f90966108f79f989b6108ac986108ba9b6108d59e8552602085015260408401526060830152608082015201526101a08d0190610786565b908b820360c08d0152610786565b9089820360e08b0152610786565b6001600160a01b039c8d166101008901529b16610120870152565b6001600160a01b0316610140850152565b6001600160a01b0316610160830152565b019061083e565b346101445760203660031901126101445760043560005260026020526040600020805461081a600183015492600281015490600381015490600481015460405161094f816107f181600587016106c5565b61095b60068401610748565b61096760078501610748565b60088501549091906001600160a01b031660098601549093906001600160a01b0316600a870154909590600b906001600160a01b0316970154976109b86001600160a01b038a169960a01c60ff1690565b996040519d8e9d8e61084b565b34610144576040366003190112610144576004356024356109f86109f3836000526002602052604060002090565b611306565b6002610180820151610a098161081e565b610a128161081e565b036103ff576001610a3183610498866000526005602052604060002090565b0190610a42825460ff9060a01c1690565b6104f857610a62610a5d856000526003602052604060002090565b6113d8565b61012082018051909290610a7e906001600160a01b03166102be565b604051631933b59d60e21b815260048101889052602481018790529390602090859060449082905afa9384156103cb57600094610bae575b5051610aca906001600160a01b03166102be565b6040516350f6e84f60e11b8152600481018890529290602090849060249082905afa9283156103cb577ffd4af8dbb6f581eae527f9ad169cf933c6aa24b485972b77b9aa23fbfe24fb7694610b8794610b6a93610b3a93600092610b8c575b506020015190608086015192611f2e565b8654600160a01b60ff60a01b1982161788556101008501519299926001600160a01b0390811692918b9116611e63565b5192546040519586526001600160a01b0316949081906020820190565b0390a4005b6020919250610ba790823d84116103c4576103b6818361015f565b9190610b29565b610aca919450610bcf6102be9160203d6020116103c4576103b6818361015f565b949150610ab6565b6060366003190112610144576004356024356001600160401b03811161014457610c059036906004016101d0565b6044356001600160401b03811161014457610c249036906004016101d0565b90610c3c6109f3846000526002602052604060002090565b9260608401513410610e1157602084015142116103ff57610180840151610c628161081e565b610c6b8161081e565b6103ff57610c83816000526003602052604060002090565b90610120610c9085611c73565b95018051909490610ca9906001600160a01b03166102be565b803b156101445760006040518092632213180160e01b82528180610cd08c60048301611410565b03915afa80156103cb57610dfc575b50610d366102be610cf085546112d2565b96610d29610cfc610185565b34815233602082015260006040820152610d248a610498896000526005602052604060002090565b611421565b516001600160a01b031690565b803b156101445785600091610d669383604051809681958294639972501560e01b84528c34928c60048701611470565b03925af180156103cb5761081a9686947fce9c0df4181cf7f57cf163a3bc9d3102b1af09f4dcfed92644a72f5ca70fdfdf93610dce93610de1575b5060018101610db13482546112e0565b9055610dbd81546112d2565b9055604051918291339734846114aa565b0390a46040519081529081906020820190565b80610df06000610df69361015f565b806105b5565b38610da1565b80610df06000610e0b9361015f565b38610cdf565b630717c22560e51b60005260046000fd5b34610144576060366003190112610144576004356024356001600160401b03811161014457610e559036906004016101d0565b6044356001600160401b03811161014457610e749036906004016101d0565b90610e89836000526002602052604060002090565b918254156103ff5760018301544211156103ff57600b830192835492610eb38460ff9060a01c1690565b610ebc8161081e565b6103ff576000938491610f0091610edb906001600160a01b03166102be565b90604051968780948193630454c0ff60e11b83526007890160058a0160048501611533565b03925af19182156103cb576000938493611092575b50600a8201548491610f5191610f33906001600160a01b03166102be565b90604051968780948193633d9ffad560e01b835289600484016115ec565b03925af19283156103cb57600093611062575b5060090154610f7b906001600160a01b03166102be565b92833b156101445760006040518095632213180160e01b82528180610fa38860048301611410565b03915afa9081156103cb577f3e7908b6fd45a2bf3eb8124d782fc93117008a6f7d60644388c5deecc405f419946110239261104d575b50611010610fe685611fb9565b610fee610196565b90815284602082015261100b886000526004602052604060002090565b611730565b805460ff60a01b1916600160a01b179055565b610397602061103f610a5d876000526003602052604060002090565b015160405193849384611814565b80610df0600061105c9361015f565b38610fd9565b610f7b91935060096110896102be923d806000833e611081818361015f565b810190611573565b94925050610f64565b849193506110b4610f51913d8085833e6110ac818361015f565b8101906114d5565b939150610f15565b6001600160a01b0381160361014457565b60e43590610194826110bc565b34610144576020366003190112610144576004356110f7816110bc565b60018060a01b031660005260016020526020604060002054604051908152f35b6101043590610194826110bc565b6101243590610194826110bc565b6101443590610194826110bc565b3461014457610160366003190112610144576004356001600160401b038111610144576111729036906004016101d0565b6024356001600160401b038111610144576111919036906004016101d0565b60a4359160c435916044356064356084356001600160401b0386116101445761081a966111c56111ef9736906004016101d0565b916111ce6110cd565b936111d7611117565b956111e0611125565b976111e9611133565b996119c8565b6040519081529081906020820190565b90816020910312610144575180151581036101445790565b906020808351928381520192019060005b8181106112355750505090565b8251845260209384019390920191600101611228565b916112689061127694928452606060208501526060840190611217565b916040818403910152610786565b90565b6040513d6000823e3d90fd5b90600481101561082857815460ff60a01b191660a09190911b60ff60a01b16179055565b9055565b90816020910312610144575190565b634e487b7160e01b600052601160045260246000fd5b906001820180921161059f57565b9190820180921161059f57565b9190820391821161059f57565b60048210156108285752565b906101946113ce600b6113176101a5565b94805486526001810154602087015260028101546040870152600381015460608701526004810154608087015261135060058201610748565b60a087015261136160068201610748565b60c087015261137260078201610748565b60e087015260088101546001600160a01b031661010087015260098101546001600160a01b0316610120870152600a8101546001600160a01b031661014087015201546001600160a01b03811661016086015260a01c60ff1690565b61018084016112fa565b90604051606081018181106001600160401b038211176101805760405260406002829480548452600181015460208501520154910152565b906020611276928181520190611217565b81518155602082015160019190910180546001600160a01b0319166001600160a01b0392909216919091178155906112a99060400151825460ff60a01b191690151560a01b60ff60a01b161790565b959493906080936114a593611497928952602089015260a0604089015260a0880190610786565b908682036060880152610786565b930152565b916114c79061127694928452606060208501526060840190610786565b916040818403910152611217565b602081830312610144578051906001600160401b038211610144570181601f82011215610144578051611507816101b5565b92611515604051948561015f565b81845260208284010111610144576112769160208085019101610763565b916112689061154e61127695936060865260608601906106c5565b9084820360208601526106c5565b6001600160401b0381116101805760051b60200190565b602081830312610144578051906001600160401b03821161014457019080601f830112156101445781516115a68161155c565b926115b4604051948561015f565b81845260208085019260051b82010192831161014457602001905b8282106115dc5750505090565b81518152602091820191016115cf565b909161160361127693604084526040840190610786565b916020818403910152610786565b601f821161161e57505050565b6000526020600020906020601f840160051c83019310611659575b601f0160051c01905b81811061164d575050565b60008155600101611642565b9091508190611639565b91909182516001600160401b0381116101805761168a8161168484546105e9565b84611611565b6020601f82116001146116c75781906112a99394956000926116bc575b50508160011b916000199060031b1c19161790565b0151905038806116a7565b601f198216906116dc84600052602060002090565b9160005b818110611718575095836001959697106116ff575b505050811b019055565b015160001960f88460031b161c191690553880806116f5565b9192602060018192868b0151815501940192016116e0565b91909182519283516001600160401b0381116101805761175a8161175485546105e9565b85611611565b6020601f821160011461179f57916117938260209360019561019498996000926116bc5750508160011b916000199060031b1c19161790565b84555b01519101611663565b601f198216956117b485600052602060002090565b9660005b8181106117fc575092610194969760019593869383602097106117e3575b505050811b018455611796565b015160001960f88460031b161c191690553880806117d6565b838301518955600190980197602093840193016117b8565b9392916114a59061182f604093606088526060880190610786565b908682036020880152611217565b90610180600b61019493835181556020840151600182015560408401516002820155606084015160038201556080840151600482015561188460a085015160058301611663565b61189560c085015160068301611663565b6118a660e085015160078301611663565b6101008401516008820180546001600160a01b0319166001600160a01b039092169190911790556101208401516009820180546001600160a01b0319166001600160a01b03909216919091179055610140840151600a820180546001600160a01b0319166001600160a01b03909216919091179055610160840151910180546001600160a01b0319166001600160a01b039092169190911781559101519061194d8261081e565b611285565b979499989592909361198761199a936119796101009a976101208d526101208d0190610786565b908b820360208d0152610786565b9160408a015288820360608a0152610786565b60808701989098526001600160a01b0390811660a087015290811660c086015290811660e085015216910152565b9492999693999895919098428210611bdb57670de0b6b3a76400008413611bca576000546119fe906001600160a01b03166102be565b9a6020600060046040519e8f928391635d1ca63160e01b83525af19b8c156103cb5760009c611b67575b50928b9a989592611af77ff5266e50a252e5896adeafbf29d9712c26c4c8cb17f8ae9cffd2b34d6fdfb8139b999693611af28e611b619b98611a686101a5565b93828552866020860152604085015260608401528660808401528d60a08401528860c08401528560e0840152611aaa8861010085019060018060a01b03169052565b6001600160a01b038d166101208401526001600160a01b038b166101408401526001600160a01b038a1661016084015260006101808401526000526002602052604060002090565b61183d565b611b448c611b29611b06610185565b916000835260006020840152600060408401526000526003602052604060002090565b90604060029180518455602081015160018501550151910155565b604051998a996001600160a01b039081169881169716958a611952565b0390a290565b611af29c5092611af77ff5266e50a252e5896adeafbf29d9712c26c4c8cb17f8ae9cffd2b34d6fdfb8139b999693611bb6611b619a97949e9c999660203d6020116103c4576103b6818361015f565b9e509396999b50509295989a909396611a28565b633e471e6160e11b60005260046000fd5b631a38ee6360e21b60005260046000fd5b80516020909101516001600160f01b0319811692919060028210611c0e575050565b6001600160f01b031960029290920360031b82901b16169150565b90655af3107a4000820291808305655af3107a4000149015171561059f57565b8051821015611c5d5760209160051b010190565b634e487b7160e01b600052603260045260246000fd5b805160011c90611c828261155c565b91611c90604051938461015f565b808352601f19611c9f8261155c565b013660208501376021916000805b838110611cbc57505050505090565b6001600160ff1b038116810361059f578060011b60008361059f57611ce46002881015612037565b611cfb8551611cf46002856112e0565b1115612074565b5060405190600280830191860101600483015b808310611d6a575050611d54611d4e611d44611d3e85611d599560026001999852601f8019910116604052611bec565b60f01c90565b61ffff1660010b90565b60010b90565b611c29565b611d638289611c49565b5201611cad565b9091602080918451815201920190611d0e565b909160005260036020526040600020908291600281019283549283860180961161059f57600095869586956001879601928354809111611e4c575b5084611dc3916112e0565b8082558592611dd282856112e0565b9054809111611e35575b5082611de7916112e0565b90556001600160a01b0384166000908152600160205260409020611e0e905b9182546112e0565b905582908215611e2b575b6001600160a01b031690f1156103cb57565b6108fc9150611e19565b81611de7929450611e45916112ed565b9290611ddc565b81611dc3929650611e5c916112ed565b9490611db8565b909392919260005260036020526040600020908490600283019586549485820180921161059f57600097889788976001899801948554809111611f17575b5086611eac916112e0565b8083559093611ebb82866112e0565b9054809111611ef4575b5091611e0691611ed885611e0e956112e0565b90556001600160a01b0316600090815260016020526040902090565b81945091611ed8611f0c611e0e9593611e06956112ed565b959294505091611ec5565b81611eac929850611f27916112ed565b9690611ea1565b9091670de0b6b3a7640000820291670de0b6b3a7640000830514831515161561014457611f6692611f5f92056120b4565b80926120b4565b9081810390811161059f5791565b6101949092919260206040519482611f958794518092858088019101610763565b8301611fa982518093858085019101610763565b010103601f19810184528361015f565b90602091604051611fca848261015f565b60008152601f1984013685830137906000915b8151831015612031576120296002600192612024655af3107a40006120028888611c49565b5105850b6040519384918b83019060f01b81520103601f19810184528361015f565b611f74565b920191611fdd565b93505050565b1561203e57565b60405162461bcd60e51b815260206004820152600e60248201526d736c6963655f6f766572666c6f7760901b6044820152606490fd5b1561207b57565b60405162461bcd60e51b8152602060048201526011602482015270736c6963655f6f75744f66426f756e647360781b6044820152606490fd5b818102918115828405821417600019909210600160ff1b90911317161561014457670de0b6b3a764000090059056fea2646970667358221220fd39fe70889a0f1bbf79914f034e16b5814bb530bc3074811d0e937d568f16ba64736f6c634300081b0033608080604052346017576000805560c89081601d8239f35b600080fdfe6080806040526004361015601257600080fd5b60003560e01c9081635d1ca631146053575063af640d0f14603257600080fd5b34604e576000366003190112604e576020600054604051908152f35b600080fd5b34604e576000366003190112604e57600054906000198214607c57600160209201806000558152f35b634e487b7160e01b600052601160045260246000fdfea2646970667358221220ff5ebd6fe857ba152d544da8526a3d984a14e577c6e5ac90784cd426c26741b864736f6c634300081b0033","linkReferences":{}},"methodIdentifiers":{"claim(uint256,uint256)":"c3490263","claimFees(uint256)":"ac68a748","create(string,string,uint256,uint256,uint256,int256,string,address,address,address,address)":"fda3c064","fees(address)":"faaebd21","id()":"af640d0f","markets(uint256)":"b1283e77","predict(uint256,string,bytes)":"d3bfc63f","predictionTrackers(uint256)":"64a6b447","predictions(uint256,uint256)":"025ae4e2","refund(uint256,uint256)":"5af36e3e","reveal(uint256,bytes,bytes)":"d4451442","reveals(uint256)":"b07d95e8","trackPredictions(uint256,bytes)":"444afb02"},"id":37}